[
    {
        "description": "Legacy P2PKH Transaction",
        "hex": "010000000100000000000000000000000000000000000000000000000000000000000000000000000000ffffffff0140420f00000000001976a91461239c0f0580da5055b41cf1306b3a242c94383188ac00000000",
        "version": 1,
        "locktime": 0,
        "inputs": [
            {
                "txid": "0000000000000000000000000000000000000000000000000000000000000000",
                "vout": 0,
                "scriptSig": "",
                "sequence": 4294967295
            }
        ],
        "outputs": [
            {
                "amount": 1000000,
                "scriptPubKey": "76a91461239c0f0580da5055b41cf1306b3a242c94383188ac"
            }
        ]
    },
    {
        "description": "Basic SegWit Transaction (P2WPKH)",
        "hex": "0100000000010100000000000000000000000000000000000000000000000000000000000000000000000000ffffffff0140420f000000000016001461239c0f0580da5055b41cf1306b3a242c9438310102010200000000",
        "version": 1,
        "locktime": 0,
        "segwit": true,
        "inputs": [
            {
                "txid": "0000000000000000000000000000000000000000000000000000000000000000",
                "vout": 0,
                "scriptSig": "",
                "sequence": 4294967295,
                "witness": [
                    "0102"
                ]
            }
        ],
        "outputs": [
            {
                "amount": 1000000,
                "scriptPubKey": "001461239c0f0580da5055b41cf1306b3a242c943831"
            }
        ]
    }
]